:020000040800F2
:10000000D0040020712200084B2200084D22000875
:100010004F2200085122000853220008000000006F
:100020000000000000000000000000005522000851
:100030005722000800000000592200085B22000837
:10004000992200089D220008A1220008CF1E000866
:10005000A5220008A9220008AD220008B12200084C
:10006000B5220008B9220008BD220008C1220008FC
:10007000C5220008C9220008CD220008D1220008AC
:10008000D5220008D9220008DD220008E12200085C
:10009000E5220008E9220008ED220008F12200080C
:1000A000F5220008F9220008FD22000801230008BB
:1000B00005230008092300080D2300081123000868
:1000C00015230008192300081D2300082123000818
:1000D00025230008292300082D23000831230008C8
:1000E00035230008392300083D2300084123000878
:1000F0004523000800000000492300084D230008A4
:1001000000000000000000005123000855230008F3
:10011000592300085D230008612300080000000047
:10012000652300082DE9FC47040040D0DFF8DC65BA
:10013000B068B56800F00C082078C10705F4803578
:100140000ED5B8F1080F05D0B8F10C0F08BFB5F502
:10015000803F47D13068810302D56068002826D0EF
:100160002078DFF8B475810714D5B8F1040F04D0F6
:10017000B8F10C0F08BF002D6BD13068810702D594
:10018000E06801281ED17068216920F4F85040EA27
:10019000012070602078C10640F1B280B8F1000FF4
:1001A00040F097803068810503D5A069002800F0F1
:1001B0008481206A716801F46041814266D200F056
:1001C0006AFA002840F079817168206A21F4604160
:1001D000014371607168E06921F07F4141EA00618B
:1001E00071605EE06068012804D1306840F48030BE
:1001F000306013E008B9306809E00528306806D19E
:1002000040F480203060316841F4803105E020F412
:1002100080303060316821F480213160606860B1E5
:1002200000F08EFA07463068810399D400F088FA0E
:10023000C01B6528F7D3032042E100F081FA07468E
:10024000306881038CD500F07BFAC01B6528F7D39A
:10025000F1E7E06868B10121396000F071FA054604
:10026000306881078FD400F06BFA401B0228F7D961
:10027000E1E7386000F064FA05463168880789D5FF
:1002800000F05EFA401B0228F7D9D4E7716821F428
:100290006041084300F016F9206A00F0FCF90028DC
:1002A00090D1216AB268490BC2F303120120491CA4
:1002B0008840DFF86814DFF85834895CC003C84010
:1002C0001860DFF85004006800F040FA010017D011
:1002D000F6E0A06948B30121396200F031FA054621
:1002E0003068810505D400F02BFA401B0228F7D9AD
:1002F000A1E77068216A20F46040084300F0E2F84A
:10030000207801072BD56069DFF81414D0B10122E1
:100310000A6000F015FA0546706B81071FD400F0E3
:100320000FFA401B0228F7D985E7386200F008FA77
:10033000054630688105E3D500F002FA401B02282B
:10034000F7D978E7086000F0FBF90546706B810784
:1003500005D500F0F5F9401B0228F7D96BE72078A6
:10036000410761D5706A0025C10009D4706A40F068
:10037000805070620125706A00F0805000900098F3
:10038000DFF8A093D9F80000C10513D4D9F8000014
:1003900040F48070C9F8000000F0D2F98246D9F824
:1003A0000000C10506D400F0CBF9A0EB0A006528D7
:1003B000F5D340E7A068012808D008B9706B09E0C0
:1003C0000528706B06D140F480607063706B40F458
:1003D000807005E020F480707063706B20F48060A2
:1003E000706341F28939A06860B100F0A9F98246D2
:1003F000706B810513D400F0A3F9A0EB0A00484507
:10040000F6D318E700F09CF98246706B810506D59B
:1004100000F096F9A0EB0A004845F6D30BE71DB1B2
:10042000706A20F080507062606A002847D0B8F18E
:100430000C0F30D0022822D100F04DF8054630686C
:10044000810105D500F07CF9401B0228F7D9F2E6BE
:10045000B068A16AE26A20F47D000843216B104372
:100460000843B060012000F037F80446306881018D
:1004700025D400F065F9001B0228F7D9DBE600F06F
:100480002AF804463068810119D500F059F9001B9B
:100490000228F7D9CFE601280FD0B068A26A00F48D
:1004A0008031914202BF00F47011E26A914202BFB2
:1004B00000F44000216B884201D0012000E00020C0
:1004C000BDE8F68770607068E16920F07F4040EA1F
:1004D0000160706070470020386600F031B92DE986
:1004E000F843040089466FD0DFF83C62306800F0C2
:1004F0000100484502D200F08EF865D12078DFF87F
:100500000C52810705D5AA68A06822F0F0020243C8
:10051000AA602178C8074FD56068022802D12968EF
:100520008A0308E0032802D129688A0103E0012830
:10053000296802D18A0702D446E08A0544D5A96811
:10054000890840EA8100A86041F2893800F0F8F893
:100550000746606802280BD1A86800F00C00082844
:100560002AD000F0EDF8C01B4045F5D3032050E041
:1005700003280AD1A86800F00C000C281CD000F059
:10058000DFF8C01B4045F5D3F0E701280AD1A86881
:1005900000F00C0004280FD000F0D2F8C01B40453A
:1005A000F5D3E3E7A86810F00C0F05D000F0C8F809
:1005B000C01B4045F6D3D9E7306800F00100814503
:1005C00004D200F028F801D0012022E02078410771
:1005D00005D5AA68E06822F4E0620243AA602178A7
:1005E000080706D5A968206921F4605141EAC001D5
:1005F000A96000F021F8AA684849454BC2F30312EC
:10060000895CC8401860BDE8F2434248006800F0C9
:100610009DB8BDE8F283B9F1010F03D1306840F015
:10062000040030603168490849EA410131603068AE
:1006300000F001004845704730B53D48416801F081
:100640000C02042A04D0082A04D00C2A04D018E092
:10065000384830BD384830BD384AC1F38343D45C94
:100660004068C1F38152521C0023C50347BF324882
:10067000A0FB04012F4DA5FB0401BDE8304000F0B4
:1006800087B80068400B00F007000121401C01FA08
:1006900000F0C00330BD78B5244B23491C6800220C
:1006A00014F0F00F22D1DD691E4CEE0003D5246852
:1006B00004F4C0540FE0DD6945F08055DD61DD696B
:1006C00005F080550095009D2468DD6925F0805572
:1006D00004F4C054DD61B4F5C05F08BFB0F5404F0D
:1006E00004D1086840F00400012208600B685B0830
:1006F00042EA43030B60086800F00100904201D019
:10070000012072BD002072BD0000000000380240D0
:100710005C000020540000200000474264210008D3
:100720008006474200700040003C0240083802400A
:10073000043802400024F40000127A005821000816
:1007400001480068704700BF5000002070B50E4E91
:100750000446B0680025A0B14FF47A710B4AB1FB92
:10076000F0F11068B0FBF1F000F0DCF848B9102CA3
:1007700007D2002221464FF0FF3000F0ABF8746042
:1007800000E00125284670BD500000205C000020DC
:10079000D3BBD9B1B2F5803F5BD2022A1ED98C46B9
:1007A000B1FBF2F102FB11C31B0443EA1043B3FB9C
:1007B000F2FC02FB1C3380B240EA0343B3FBF2F0CD
:1007C00002FB103240EA0C4000237047022A05D990
:1007D0008446B0FBF2F002FB10C270474AB105D16B
:1007E00000F0010249085FEA300070470022002350
:1007F000704700F0B7B80B000200002100207047DE
:10080000F7D3002200237047904271EB030CF2D320
:1008100070B5B1FA81F4B3FA83F52C1BA340C4F18F
:10082000200532FA05F63343A2405FF00046E64069
:1008300002E05B085FEA3202841A71EB030524BF11
:10084000204629467641F4D302000B0030000021F7
:1008500070BD70B5B1FA81F4B2FA82F5C4F120042A
:100860006419B4F12006DAD3B2405FF00044F440DA
:10087000002502E052085FEA3303C61A71EB020E4C
:1008800024BF3046714664416D41F3D302000B0032
:100890002000290070BD0268531C0360117070476E
:1008A0000901020002D4294881547047284B02F004
:1008B0000F021A4402F8041C7047264B19684FF6C1
:1008C000FF020002114000F4E0600843224908439F
:1008D0001860704770B51F4B1C68C4F302230124D5
:1008E000C3F10705052D2EBF0F2504FA05F56D1E72
:1008F0001E1D072E34BF0023DB1E2940994004FA39
:1009000003F3BDE870405B1E1A401143C8E70100C5
:1009100007D4012200F01F01104B8A40400943F820
:100920002020704710B5401EB0F1807F01D3012018
:1009300010BD0B4C60600F214FF0FF30FFF7B0FF90
:100940000021A16007202060002010BD00E400E02D
:1009500018ED00E00CED00E00000FA0500E100E019
:1009600010E000E070474300DFF84405002138B58F
:10097000DFF84045DFF840556060A1604FF470102B
:10098000E0600C214020606121614FF4A050E061E3
:1009900000214020606280234FF48040206396B0A5
:1009A000A1612162E1626363142201A800F0A2FA4E
:1009B0003422002109A800F09DFA0C22002106A88B
:1009C00000F098FAA86840F08050A8600421A86858
:1009D00000F08050009000220098099112920121AD
:1009E0000B9109A8FFF79EFB00B1FEE701214FF430
:1009F00080320691079206A800F086FA286840F037
:100A000001002860296801F001010091009829681F
:100A100041F0020129602A6802F002020092009867
:100A2000296841F00401296048F20E712A6802F039
:100A30000402009202220098DFF8800401910292E1
:100A40000021039103220B210591049201A900F0DA
:100A5000EDFA4FF63870019001A9DFF8640400F058
:100A6000E5FA40F6CF70019001A9DFF8580400F0D4
:100A7000DDFA022000F0B0FBA86840F40070A86026
:100A8000A86800F4007000900098201D00F0B8FBEA
:100A900000F00BFA17B030BD38B50428DFF8144465
:100AA0006FF420453DD8DFE800F0030D1824300036
:100AB00000232A46062100F0CDF9002300F037F884
:100AC00000202DE04FF400432A46062100F0C2F931
:100AD000002300F02CF8012022E04FF400432A46C6
:100AE000062100F0B7F94FF4004300F020F802208F
:100AF00016E04FF420432A46062100F0ABF94FF4EC
:100B0000004300F014F803200AE04FF420432A4683
:100B1000062100F09FF94FF4204300F008F804206C
:100B20006070201DBDE8324000F04BBC03432A46F4
:100B30000421201D00F0D7BB80B500F007F8DFF8D6
:100B400074034078BDE80240A6E70000F8B51446FB
:100B50001A46007800250023B0F1200752D07F1FED
:100B600021D0FF1E35D07F1E31D07F1E33D0FF1E17
:100B700021D0BF1E1DD07F1E092F0AD93D3F23D093
:100B80007F1E1ED0423F11D07F1F17D04A3F07D093
:100B900024E00FF24C3505EB400030F8605C31E0AA
:100BA0004FF6DD752EE04FF433452BE04FF46C45E6
:100BB00028E0C02526E04FF4204523E046F28405D6
:100BC00020E042F210251DE04BF210251AE011251D
:100BD00018E0282516E04AF2DD0513E0A0F14107F0
:100BE0001A2F05D2DFF8E45205EB400737F8825C94
:100BF000A0F161061A2E05D2DFF8D05205EB4000B5
:100C000030F8C25C012908BF45F00205012C08BF7D
:100C100045F02005DFF89C420C2004F1400645FA1F
:100C200000F101F00F01DFB246F827105B1C001F36
:100C3000D9B20429F3DB521E236C052A00F2B880D6
:100C4000DFE802F003172A3E6D9E00F0E4F8DFF8BB
:100C5000805200F002F9636C00F0DDF800F0F7F864
:100C6000A36C00F0D8F8FFF761FFE36C00F0D3F855
:100C700099E000F0E1F8974D00F0EFF8636C00F0B8
:100C8000DBF800F0E4F8A36C00F0D6F8FFF74EFFB5
:100C9000E36C00F0D1F886E000F0B6F86FF00325C1
:100CA00000F0DBF8636C00F0AFF800F0D0F8A36C54
:100CB00000F0AAF8FFF73AFFE36C00F0A5F872E045
:100CC00000F09BF8844D854E00F0C7F8236C00F0CF
:100CD0008BF800F0C4F8636C00F08FF800F0B7F800
:100CE000636C00F081F800F0B4F8A36C00F085F8B4
:100CF000FFF71CFFA36C00F077F8FFF719FFE36C18
:100D000000F07BF803432A46062100F0A3F8E36CC9
:100D100098029B0400F4006003F480132DE000F0BF
:100D20005CF86FF4842500F098F8236C00F045F827
:100D30006FF401260343324600F091F8636C00F033
:100D40004CF800F084F8636C00F03EF800F081F895
:100D5000A36C00F042F8FFF7E9FEA36C00F034F852
:100D6000FFF7E6FEE36C00F038F803432A4606215D
:100D700000F070F8E36C00F020F80343324614E012
:100D800000F04FF86FF4703500F067F8636C00F016
:100D900048F800F05CF8A36C00F043F8FFF7C6FEDB
:100DA000E36C00F03EF803432A46062100F052F8B7
:100DB000201DBDE8F24000F004BB18031B0400F442
:100DC000805003F40023704718031B0400F4805084
:100DD00003F4002303433246704718031B0400F456
:100DE000005003F48023704798029B0400F40060D5
:100DF00003F4801303433246704798029B0400F4C7
:100E0000806003F40013704718029B0500F44070E3
:100E100003F04073704703F003009B0603F0405358
:100E200070479803D90300F4404001F400315B039C
:100E3000084303F4803370479800990100F00400E0
:100E400001F080011B06084303F040637047034331
:100E50002A460221201D00F046BA03432A460021FB
:100E6000201D00F040BA38B5044601250FE0EBB272
:100E7000002200212046FFF75FFE6D1C06E02E29B0
:100E8000F5D1DBB200220121FFF756FE641C217868
:100E900051B1E8B2072807DA601E6B1E3A29EED17D
:100EA000DBB201220021EFE731BD074800F054BA60
:100EB00000240040000000201C38024000000240D6
:100EC000000402400008024004000020AC21000899
:100ED000FCFFFFCF7BFFFFF3FFFBDFFFFFF7EFFF21
:100EE000005F004200F5006700EA00AF00BF004667
:100EF00000FF00EF10B5044610460A4601462046A2
:100F000000F0A2FA204610BD2DE9FC4105462878E4
:100F100010F0030F00F08080414E706A0024C10081
:100F200009D4706A40F0805070620124706A00F049
:100F30008050009000983B4F3868C10511D4386844
:100F400040F480703860FFF7FBFB80463868C105CD
:100F500007D4FFF7F5FBA0EB08006528F6D30320C4
:100F60005BE03068696800F0C04001F0C042904228
:100F700002BFAB6803F0C043984209D001F440308F
:100F8000B0F5403F04D13268900348BF012044D4FB
:100F9000706B10F4403027D001F44031884202D009
:100FA0002978CA0707D4A96801F4403188421BD0C8
:100FB0002878810718D51C49706B01220A6000232C
:100FC00020F440300B607063C0050DD5FFF7B8FB0F
:100FD0000746706B810507D4FFF7B2FBC01B41F2D7
:100FE00089318842F5D3BAE7686800F44031B1F539
:100FF000403F06D1326822F0C04200F0C0401043AA
:101000003060706B696801F44031084370631CB153
:10101000706A20F0805070620020BDE8F681000008
:101020000038024000700040DC0647422DE9F84FCE
:101030000027614A614B4FF00F0805460E4634E029
:101040005F4CA54214BF052404248C405D4944EA4A
:101050000E0441F82C40C143146801EA040C746882
:10106000E40348BF40EA0C0CC2F800C0546801EA2F
:10107000040C7468A40348BF40EA0C0CC2F804C016
:10108000946801EA040C7468E40248BF40EA0C0C5E
:10109000C2F808C0D46801EA040C7168890248BF2C
:1010A00040EA0C0CC2F80CC07F1C316831FA07F022
:1010B00000F080800124BC4014EA0100F4D04FEA23
:1010C000470C032101FA0CF16FEA010E7168012946
:1010D00018BF022903D0112918BF122912D1A968FB
:1010E000D6F80C900EEA010109FA0CF949EA01015F
:1010F000A960696821EA04047168C1F30011B9406C
:101100000C436C60E968B4680EEA010104FA0CF45F
:101110002143E960B9007468022C18BF122C12D167
:10112000FC0805EB840401F01C09D4F820A008FA9F
:1011300009FB2AEA0B0AD6F810B00BFA09F949EABA
:101140000A09C4F820902C680EEA040E347904F0E1
:10115000030404FA0CF444EA0E042C607468E400FE
:10116000A2D51C6844F001041C604FEA970C1C686F
:1011700004F00104009401F00C01009C114C54F89F
:101180002C4008FA01FE24EA0E0E0F4CA54208BFBF
:1011900000240ED00D4CA54208BF012409D00C4CF0
:1011A000A54208BF022404D00A4CA5427FF448AFF0
:1011B00003244AE7BDE8F18F0004014020380240D3
:1011C00000100240080001400000024000040240FC
:1011D00000080240000C024038B50446FFF7B0FAA0
:1011E00014F1010F054602D0044988680419FFF77D
:1011F000A7FA401BA042FAD331BD00BF5000002027
:10120000F8B5044600260CB90120F2BD04F13405FE
:10121000687818B92E70204600F049F902206870ED
:10122000002300F05AF82068F2B2761C00EB82012D
:10123000F0B210284B61F6D340F2E93600F0E9F83D
:10124000226853686168A0686FF319130B43A16AA1
:101250000343E06A0B43E1690343206A0B43A1693E
:101260000343606A0B4303435360204600F0D7F802
:1012700022681368E168206923F0FE030B4361696B
:101280000343206B0B43034313602068016841F064
:1012900001010160FFF754FA074620688168C8071A
:1012A00008D4FFF74DFAC01BB042F6D3082068609F
:1012B0000320F2BDFFF744FA074620688168C8069C
:1012C00006D4FFF73DFAC01BB042F6D31020EEE77C
:1012D0000020686001216970F2BD2068016849083A
:1012E0004900016070472DE9F843064606F13407CE
:1012F0008846787801281CBF7878022814461D4655
:1013000027D1787801281BD13978012908BF02201C
:1013100020D0387002217970FFF712FA81463068C8
:10132000816848070CD5FFF70BFAA0EB090000F025
:101330006CF8F4D30220786000213970032009E0B2
:10134000306800EB880041690C402C434461002068
:1013500000E00120BDE8F283F8B5044604F134064C
:101360000025707801281CBF7078022827D13178B9
:10137000012901D10220F2BD0120307002217170DB
:10138000FFF7DEF907462068816848070AD5FFF7AE
:10139000D7F9C01B00F039F8F5D302207060357022
:1013A0000320F2BD216801EB85026D1C0020102D89
:1013B0005061F7D3204600F004F80020F2BD012070
:1013C000F2BD38B5044608202168C86000F021F855
:1013D000FFF7B6F905462068816808070CD4FFF7C7
:1013E000AFF900F011F8F6D304F1340004224260A2
:1013F00000210170032032BD04F13400012141704D
:1014000000220270002032BD401B40F2E9318842C8
:1014100070472068816841F004018160704738B5E9
:101420000446FFF78DF9054620688168880608D4D0
:10143000FFF786F9FFF7E8FFF6D30120A06303204A
:1014400032BD002032BD000062F30F2262F31F4262
:10145000401810F0030308D0C91A1FD3DB0748BF98
:1014600000F8012D28BF20F8022D130030B41446D7
:101470001546103928BF20E93C00FAD8490728BF93
:1014800020E90C0048BF40F8042D890028BF20F84F
:10149000022D48BF00F8012D30BC7047C91818BF95
:1014A00000F8012DCB0728BF00F8012D70477047C9
:1014B0002DE9F84F96B0164604911F46209ADFF8A2
:1014C000B4830DF1360100231491CDE900334A7045
:1014D0004FF0FF3182460A930EAD15910CE0234682
:1014E000324603A9504600F031FA002800F1C180CD
:1014F00001E0F4D5012436193078252805D10021E2
:1015000000220791089209910BE06A464FF0FF31E3
:10151000304600F077FA0400EBD10A98ACE141F0D4
:10152000010116F8010F2028F9D023280CD02B2810
:1015300004D02D2805D0302809D00BE041F002015D
:10154000EFE741F00401ECE741F00801E9E741F081
:101550001001E6E72A280CD13A6852F8040B3A60E9
:1015600000280C9003D540420C9041F00401761CF9
:1015700010E00C9209E00C98404505DA00EB80037E
:1015800002EB4302303A0C92761C3278A2F1300022
:101590000A28F0D330782E2802D015980B9021E03D
:1015A00016F8010F2A2806D1386850F8042B386045
:1015B0000B92761C16E02D280CBF761C0020002212
:1015C0000B920AE040B90B9A424505DA02EB82041D
:1015D00003EB4403303B0B93761C3378A3F13002CA
:1015E0000A2AEFD3ADF834100FF29030317800F0C2
:1015F0000DFA08B116F8010B8DF836009DF836008B
:10160000682804BF3178682903D162208DF836003C
:10161000761C0EA8069016F8012B252A114613D029
:10162000582A4BD0632A00F0A880642A18BF692A80
:101630006FD06F2A42D0702A37D0732A07D0752A0C
:1016400018BF782A3AD0A1E0012207929BE03868BF
:1016500050F8044B3860059494B91499487858B1FF
:101660000FF2203000F0DEF94FF0FF34241A00F0C2
:1016700097804FF0FF30FFE00FF2243005908FE0AD
:10168000DDF82C90B9F1000F04D5204600F0EAF9FE
:10169000044608E04A460021204600F0FFF90028F1
:1016A00014BF041B4C4608947AE0386850F8041BB9
:1016B000386003910EA9059178215AE09DF8360013
:1016C000622802D0682806D00BE0396851F8040B74
:1016D0003960C0B209E0396851F8040B396080B252
:1016E00003E0396851F8040B396003909DF8340029
:1016F000010739D50398002836D042F02001782917
:1017000032D1079830212954401C431C07932A5496
:101710002AE09DF83600622802D0682806D00BE047
:10172000396851F8040B396040B209E0396851F862
:10173000040B396000B203E0396851F8040B3960DA
:101740000028039002D507982D210AE0BDF8340047
:10175000810702D507982B2103E0C00704D507981D
:1017600020212954401C07900EA807990144059197
:10177000114603A800F083F812E0012007903868B2
:1017800050F8041B38608DF8381009E001210791EA
:10179000252311008DF8383002D0022007906A709E
:1017A0000C980799099A401A0899801AA0EB010928
:1017B0009DF83400410711D42020B9F1000F8DF8B5
:1017C00008000BDD4C46012302AA03A9504600F095
:1017D000BDF800287FF44DAF641EF4D1079C0DF1D5
:1017E000380B64B11BF8011B0498D0470028049003
:1017F0003FF43FAF0A98401C641E0A90F2D1099C46
:101800003020002C8DF808000ADD012302AA03A96C
:10181000504600F09BF800287FF42BAF641EF4D1F3
:10182000DDF814B0089C64B11BF8011B0498D04784
:10183000002804903FF41DAF0A98401C641E0A90D3
:10184000F2D19DF8340041077FF556AE2020B9F162
:10185000000F8DF808007FF74FAE4C46012302AA17
:1018600003A9504600F072F800287FF402AF641E0E
:10187000F4D141E6CBCCCC0C17B0BDE8F08FF0B47E
:1018800002466F29D46808BF082605D041F0200021
:10189000782814BF0A26102618251368642918BF53
:1018A0006929184602D1002B48BF404258B9136A33
:1018B0004BB9082E26D192F82800010722D53020F6
:1018C0001725E0751EE0B0FBF6F706FB1700303079
:1018D0006D1EC3B23A2BA4BFA1F151031818605575
:1018E000380003D093686719BB42ECD3082E09D1A6
:1018F00092F82800010705D5605D302802D06D1EE2
:1019000030206055C5F11803106A53616119834294
:10191000916008DA118DC31A4FF6EF7001409361A0
:101920001185F0BC704700280ED592F8280000F011
:101930001400102808D1546A11699069641A241A95
:10194000E31A012BA8BF9361F0BC7047F8B50546B8
:101950000E4617461C4600205CB117F8011B706844
:10196000A847706030B1F069401CF0610020641E2F
:10197000F3D1F2BD4FF0FF30F2BD0000686C747A15
:101980004C0000007072696E74665F733A20626189
:101990006420257320617267756D656E74000000A8
:1019A0000000000070B45368D41801E05B1C491EAD
:1019B000042B08DA00291FBF057804F8015B10F832
:1019C000016B002EF2D1536070BC704738B51446DD
:1019D0001D4661B1FFF7E6FF61686A6B20469047DC
:1019E0006FF00102811A02D0491E01D001E003E02C
:1019F00005E00021616032BD6FF0010032BD4FF0A3
:101A0000FF3032BD004BE1E760000020C9B2027830
:101A10008A421AB11CBF10F8012FF9E718BF002045
:101A20007047000080B500B906A005490B681BB1DE
:101A300022220021984701E000F05CF8222002BD3C
:101A4000C8000020636F6E73747261696E742068E1
:101A5000616E646C65723A20626164206D657373B7
:101A60006167650000F10103810704D010F8011BD4
:101A7000820781B1FAD10268A2F10131914311F0DC
:101A8000803104BF50F8042FF6E709BAB1FA81F1AA
:101A900000EBD100401CC01A70470000C9B2830798
:101AA00006D0521E22D310F8013B9942F7D11FE015
:101AB000083A13D302F1040241EA012141EA01414B
:101AC00050F8043B121F21BF4B40A3F1013C2CEA0C
:101AD000030C1CF0803FF3D0C9B2001F083210F88D
:101AE000013B521E28BF91EA030FF8D818BF01200E
:101AF000401E7047012000F001B8000080B5AFF330
:101B00000080024A11001820ABBEFBE7260002004D
:101B10002DE9F84300F071F808BF022037D000F03B
:101B20004FF80ED5FEF70CFE05462068C168480741
:101B300007D5FEF705FE401B4045F6D300F032F80E
:101B400025E000F037F800F09DF8FEF7F9FD0546B6
:101B50002068C1684A0705D4FEF7F2FD401B4045E6
:101B6000F6D3EBE7C0F81490206800F012F8434871
:101B7000026842F480120260816841F48011816041
:101B80002068816841F48041816000F02AF8BDE856
:101B9000F2838168C908C9008160206881680E43AA
:101BA00086607047206847620321617700202077B4
:101BB000032070472068816821F48061816070474C
:101BC0000120207702216177CA20226850625321C8
:101BD00020684162FF2720688168480540F2E938A3
:101BE00070472068816841F480618160012120682C
:101BF0004762617700202077704704468946207F3E
:101C000001281646704738B500F057F801D1022078
:101C100032BD00F047F8FFF7CDFF2068816821F45E
:101C200080418160FEF78CFD05462068C1684A0747
:101C30000AD4FEF785FD401B40F2E9318842F4D317
:101C400000F028F8084632BDFF214162012060778C
:101C500000212177F6E710B504462068C1684805E1
:101C600004D5204600F03EF800F00CF84FF4801048
:101C7000034908600122627710BD000000040140A2
:101C8000140401402068C16801F0800161F4906192
:101C9000C16070472268FF205062032161770020F5
:101CA000207770470120207702216177CA202268BF
:101CB000506253212068416270470446207F01280A
:101CC0007047000080B500F083F800F02BF8FEF7B5
:101CD0004BFE00F0B4F800F020F90121002000F0E4
:101CE00006F9FEE700B585B00DF1080031A1092223
:101CF00000F020F90DF104020DF105010DF10600CF
:101D000000F082F89DF804009DF805309DF806204B
:101D10002BA1009002A800F019F902A8FFF7A3F880
:101D200005B000BD00B593B01422002101A8FFF753
:101D3000E1F83422002106A8FFF7DCF810220A920D
:101D40000121002209911092022006900F904FF479
:101D500000214FF400021191129206A8FEF7E2F959
:101D600000B1FEE71148016841F080510160006850
:101D700000F08050009000980D48016821F4C05197
:101D800041F4006101604168CA06FCD40F200321C0
:101D9000019002910022039204920592012101A870
:101DA000FEF79DFB00B1FEE713B000BD24380240F2
:101DB0000070004030303A30303A303000000000DF
:101DC000252E32643A252E32643A252E32640000E4
:101DD0000B4810B5016841F004010160002402685D
:101DE00042F0020202600320FEF767FD0F20FEF7BB
:101DF000ADFC002814BF012400F004F8204610BDFB
:101E0000003C024070470000F8B586B004460D461D
:101E10001646304F002201A9384600F005F900228D
:101E20006946384600F026F99DF8040020709DF8B8
:101E3000051029709DF80600307007B0F0BD10B590
:101E4000244C254820600021FF207F22E060616053
:101E5000A26021616161A161204600F097F8002233
:101E600000210320FEF736FD0320FEF750FD20463B
:101E7000FFF7C9FE2046BDE8104000224FF4006184
:101E8000FFF746BE00B5154891B0016841F080519A
:101E90000160006800F080500090009800F022F887
:101EA0000C210491002201210D920691099204A8AF
:101EB000FEF738F901214FF480320191029201A816
:101EC000FFF722F806490120086011B000BD014863
:101ED000FFF7C1BEA80000200028004024380240BF
:101EE000D80647421049FFE70120086070470F4AB3
:101EF00013689B0840EA8300106001290C480268BF
:101F000042F0040202600FBF30BF40BF20BF20BFBD
:101F1000016821F00401016070470548016841F043
:101F2000020101607047000020000E420070004076
:101F300010ED00E04AB1000011F8013B521E00F81C
:101F4000013B1CBF11F8013BF8E770470CB430B5FA
:101F500083B00A4606A90291044600250194009523
:101F600002AB01A9084878441E30FFF7A1FA019A94
:101F7000157000284EBF04460198041B204603B08C
:101F800030BC5DF80CFB00BF0FE9FFFF70B504002B
:101F900013D0607F20B9002121772046FFF772FF20
:101FA00000F03AF853202168486200F03BF8FF2522
:101FB00028B12068456204216177012070BD216845
:101FC000DFF8F4008A6802408A60226893686668D5
:101FD000216960690E430643334393602068E168DA
:101FE000016120680169A26841EA0241016120683B
:101FF000C16821F08001C1602068016C21F480215A
:10200000016421680A6CA06902430A640120216806
:102010004D626077002070BD02206077CA2122687F
:102020005162704720464DE038B500680C46816A21
:1020300089B261600169C1F30E01A1600168DFF836
:102040007C000140080C00F03F0323700D0A00F0F3
:1020500040006570A170E0703AB9207800F04DF84A
:1020600000F005F800F024F8A070002032BD2070C8
:10207000607842E038B50C460168DFF844004968F2
:102080000140A1700D0A0B0C05F01F05490BE37010
:10209000657001F00701217042B9E07800F02DF879
:1020A000E070FFF7E5FF00F003F8A070002032BDFC
:1020B0006070A07821E00000BFFF8FFF7F7F7F006E
:1020C0003FFFFF0038B504462068C1684A0612D4B5
:1020D0004FF0FF31C160FEF733FB05462068C16851
:1020E000480608D4FEF72CFB401B40F2E931884239
:1020F000F4D3032032BD002032BD01090A2200F0D2
:102100000F0002FB0100C0B27047000010B50E4A7C
:102110000E49106840F48070106093680C480B40C2
:102120009360146804401460116821F480211160E8
:102130000021906820F47D009060D1604FF0006035
:10214000044A106010BD0000003802400CC0FF8837
:10215000FEFFFEEE08ED00E0030406080C10182058
:102160003000000000000000000000000102030435
:102170000607080930B5016884684218416802EB17
:102180005103C90703D54C4401E0491C05D19A42CB
:102190000AD012F9011B12F8015B002904F8015B57
:1021A000F3D4491EF7D5F2E70C3030BD00FE1467BA
:1021B000001D1447009D009C003F00FA14000053CE
:1021C00041980019485A095A005F00FC015F01FC60
:1021D00000AF1404005BC018815AC9005800C00544
:1021E00010B5074979441831064C7C44163404E094
:1021F0000A68081D114488470146A142F8D110BD64
:1022000008000000140000006DFFFFFF5C010000EB
:10221000460000000000002000F00DF8002801D06A
:10222000FFF7DEFFAFF300800020AFF30080FFF781
:1022300049FD00F002F80120704700F001B80000ED
:1022400007463846FFF75AFCFBE77047FEE7FEE714
:10225000FEE7FEE770477047704700F001B80000E6
:1022600002490A68886882180A6070475000002096
:1022700001488047014800470D21000881220008DD
:10228000AFF30080AFF30080FFF7C6FF0078401E79
:102290008041C043C00F7047FFF7FEBFFFF7FEBF8E
:1022A000FFF7FEBFFFF7FEBFFFF7FEBFFFF7FEBF62
:1022B000FFF7FEBFFFF7FEBFFFF7FEBFFFF7FEBF52
:1022C000FFF7FEBFFFF7FEBFFFF7FEBFFFF7FEBF42
:1022D000FFF7FEBFFFF7FEBFFFF7FEBFFFF7FEBF32
:1022E000FFF7FEBFFFF7FEBFFFF7FEBFFFF7FEBF22
:1022F000FFF7FEBFFFF7FEBFFFF7FEBFFFF7FEBF12
:10230000FFF7FEBFFFF7FEBFFFF7FEBFFFF7FEBF01
:10231000FFF7FEBFFFF7FEBFFFF7FEBFFFF7FEBFF1
:10232000FFF7FEBFFFF7FEBFFFF7FEBFFFF7FEBFE1
:10233000FFF7FEBFFFF7FEBFFFF7FEBFFFF7FEBFD1
:10234000FFF7FEBFFFF7FEBFFFF7FEBFFFF7FEBFC1
:10235000FFF7FEBFFFF7FEBFFFF7FEBFFFF7FEBFB1
:10236000FFF7FEBFFFF7FEBF010004AE000010FD47
:10237000000001FC000748E8016609000801D100DF
:10238000038D220008F8000001D5000000000000C5
:10239000000000000000000000000000000000003D
:0623A00000000000000037
:04000005080022814C
:00000001FF
